{
    "contractName": "SimpleStorage",
    "abi": [
        {
            "inputs": [],
            "name": "FevNumber",
            "outputs": [
                {
                    "internalType": "uint256",
                    "name": "",
                    "type": "uint256"
                }
            ],
            "stateMutability": "view",
            "type": "function"
        },
        {
            "inputs": [
                {
                    "internalType": "string",
                    "name": "_name",
                    "type": "string"
                },
                {
                    "internalType": "uint256",
                    "name": "_favoriteNumber",
                    "type": "uint256"
                }
            ],
            "name": "addPerson",
            "outputs": [],
            "stateMutability": "nonpayable",
            "type": "function"
        },
        {
            "inputs": [
                {
                    "internalType": "uint256",
                    "name": "",
                    "type": "uint256"
                }
            ],
            "name": "people",
            "outputs": [
                {
                    "internalType": "uint256",
                    "name": "FevNumber",
                    "type": "uint256"
                },
                {
                    "internalType": "string",
                    "name": "name",
                    "type": "string"
                }
            ],
            "stateMutability": "view",
            "type": "function"
        },
        {
            "inputs": [],
            "name": "person",
            "outputs": [
                {
                    "internalType": "uint256",
                    "name": "FevNumber",
                    "type": "uint256"
                },
                {
                    "internalType": "string",
                    "name": "name",
                    "type": "string"
                }
            ],
            "stateMutability": "view",
            "type": "function"
        },
        {
            "inputs": [],
            "name": "retrive",
            "outputs": [
                {
                    "internalType": "uint256",
                    "name": "",
                    "type": "uint256"
                }
            ],
            "stateMutability": "view",
            "type": "function"
        },
        {
            "inputs": [
                {
                    "internalType": "uint256",
                    "name": "_fevNum",
                    "type": "uint256"
                }
            ],
            "name": "store",
            "outputs": [],
            "stateMutability": "nonpayable",
            "type": "function"
        }
    ],
    "bytecode": "60026080818152610100604052600560c0908152643730bb34b760d91b60e05260a0819052600183815591929061003690826100ea565b50505034801561004557600080fd5b506101a9565b634e487b7160e01b600052604160045260246000fd5b600181811c9082168061007557607f821691505b60208210810361009557634e487b7160e01b600052602260045260246000fd5b50919050565b601f8211156100e557600081815260208120601f850160051c810160208610156100c25750805b601f850160051c820191505b818110156100e1578281556001016100ce565b5050505b505050565b81516001600160401b038111156101035761010361004b565b610117816101118454610061565b8461009b565b602080601f83116001811461014c57600084156101345750858301515b600019600386901b1c1916600185901b1785556100e1565b600085815260208120601f198616915b8281101561017b5788860151825594840194600190910190840161015c565b50858210156101995787850151600019600388901b60f8161c191681555b5050505050600190811b01905550565b6104ee806101b86000396000f3fe608060405234801561001057600080fd5b50600436106100625760003560e01c80636057361d146100675780636f760f411461007c57806377ec2b551461008f5780639268c2b4146100ae5780639e7a13ad146100c5578063a6b7fc5b146100d8575b600080fd5b61007a610075366004610235565b600055565b005b61007a61008a366004610264565b6100e0565b610097610169565b6040516100a5929190610319565b60405180910390f35b6100b760005481565b6040519081526020016100a5565b6100976100d3366004610235565b610200565b6000546100b7565b604080518082019091528181526020810183815260038054600181018255600091909152825160029091027fc2575a0e9e593c00f959f8c92f12db2869c3395a3b0502d05e2516446f71f85b8101918255915190917fc2575a0e9e593c00f959f8c92f12db2869c3395a3b0502d05e2516446f71f85c019061016290826103f8565b5050505050565b600180546002805491929161017d9061036f565b80601f01602080910402602001604051908101604052809291908181526020018280546101a99061036f565b80156101f65780601f106101cb576101008083540402835291602001916101f6565b820191906000526020600020905b8154815290600101906020018083116101d957829003601f168201915b5050505050905082565b6003818154811061021057600080fd5b6000918252602090912060029091020180546001820180549193509061017d9061036f565b60006020828403121561024757600080fd5b5035919050565b634e487b7160e01b600052604160045260246000fd5b6000806040838503121561027757600080fd5b823567ffffffffffffffff8082111561028f57600080fd5b818501915085601f8301126102a357600080fd5b8135818111156102b5576102b561024e565b604051601f8201601f19908116603f011681019083821181831017156102dd576102dd61024e565b816040528281528860208487010111156102f657600080fd5b826020860160208301376000602093820184015298969091013596505050505050565b82815260006020604081840152835180604085015260005b8181101561034d57858101830151858201606001528201610331565b506000606082860101526060601f19601f830116850101925050509392505050565b600181811c9082168061038357607f821691505b6020821081036103a357634e487b7160e01b600052602260045260246000fd5b50919050565b601f8211156103f357600081815260208120601f850160051c810160208610156103d05750805b601f850160051c820191505b818110156103ef578281556001016103dc565b5050505b505050565b815167ffffffffffffffff8111156104125761041261024e565b61042681610420845461036f565b846103a9565b602080601f83116001811461045b57600084156104435750858301515b600019600386901b1c1916600185901b1785556103ef565b600085815260208120601f198616915b8281101561048a5788860151825594840194600190910190840161046b565b50858210156104a85787850151600019600388901b60f8161c191681555b5050505050600190811b0190555056fea2646970667358221220ba9698c20666959ebe37f2d573d0e1897f69f0f6e3cc7a1e6d2b12e33ad2c2a264736f6c63430008130033",
    "sourcePath": "/Users/nm/Developer/smart_contract/SimpleStorage.sol",
    "compiler": {
        "name": "solc",
        "version": "0.8.19+commit.7dd6d404"
    },
    "functionHashes": {
        "FevNumber()": "9268c2b4",
        "addPerson(string,uint256)": "6f760f41",
        "people(uint256)": "9e7a13ad",
        "person()": "77ec2b55",
        "retrive()": "a6b7fc5b",
        "store(uint256)": "6057361d"
    },
    "gasEstimates": {
        "creation": {
            "codeDepositCost": "252400",
            "executionCost": "infinite",
            "totalCost": "infinite"
        },
        "external": {
            "FevNumber()": "2339",
            "addPerson(string,uint256)": "infinite",
            "people(uint256)": "infinite",
            "person()": "infinite",
            "retrive()": "2380",
            "store(uint256)": "22290"
        }
    }
}